{
  "contractName": "Beth",
  "abi": [
    {
      "inputs": [
        {
          "internalType": "contract BethToken",
          "name": "_bethToken",
          "type": "address"
        }
      ],
      "stateMutability": "nonpayable",
      "type": "constructor"
    },
    {
      "anonymous": false,
      "inputs": [
        {
          "indexed": true,
          "internalType": "address",
          "name": "previousOwner",
          "type": "address"
        },
        {
          "indexed": true,
          "internalType": "address",
          "name": "newOwner",
          "type": "address"
        }
      ],
      "name": "OwnershipTransferred",
      "type": "event"
    },
    {
      "inputs": [],
      "name": "actualMatch",
      "outputs": [
        {
          "internalType": "string",
          "name": "title",
          "type": "string"
        },
        {
          "internalType": "string",
          "name": "gameName",
          "type": "string"
        },
        {
          "internalType": "string",
          "name": "team1",
          "type": "string"
        },
        {
          "internalType": "string",
          "name": "team2",
          "type": "string"
        },
        {
          "internalType": "uint256",
          "name": "matchDate",
          "type": "uint256"
        },
        {
          "internalType": "uint256",
          "name": "team1TotalBetAmount",
          "type": "uint256"
        },
        {
          "internalType": "uint256",
          "name": "team2TotalBetAmount",
          "type": "uint256"
        },
        {
          "internalType": "address",
          "name": "validator",
          "type": "address"
        },
        {
          "internalType": "uint256",
          "name": "winner",
          "type": "uint256"
        }
      ],
      "stateMutability": "view",
      "type": "function",
      "constant": true
    },
    {
      "inputs": [],
      "name": "bethToken",
      "outputs": [
        {
          "internalType": "contract BethToken",
          "name": "",
          "type": "address"
        }
      ],
      "stateMutability": "view",
      "type": "function",
      "constant": true
    },
    {
      "inputs": [
        {
          "internalType": "address",
          "name": "",
          "type": "address"
        }
      ],
      "name": "isValidator",
      "outputs": [
        {
          "internalType": "bool",
          "name": "",
          "type": "bool"
        }
      ],
      "stateMutability": "view",
      "type": "function",
      "constant": true
    },
    {
      "inputs": [],
      "name": "owner",
      "outputs": [
        {
          "internalType": "address",
          "name": "",
          "type": "address"
        }
      ],
      "stateMutability": "view",
      "type": "function",
      "constant": true
    },
    {
      "inputs": [],
      "name": "renounceOwnership",
      "outputs": [],
      "stateMutability": "nonpayable",
      "type": "function"
    },
    {
      "inputs": [
        {
          "internalType": "address",
          "name": "",
          "type": "address"
        }
      ],
      "name": "stackingBalance",
      "outputs": [
        {
          "internalType": "uint256",
          "name": "",
          "type": "uint256"
        }
      ],
      "stateMutability": "view",
      "type": "function",
      "constant": true
    },
    {
      "inputs": [
        {
          "internalType": "address",
          "name": "newOwner",
          "type": "address"
        }
      ],
      "name": "transferOwnership",
      "outputs": [],
      "stateMutability": "nonpayable",
      "type": "function"
    },
    {
      "inputs": [
        {
          "internalType": "uint256",
          "name": "",
          "type": "uint256"
        }
      ],
      "name": "validators",
      "outputs": [
        {
          "internalType": "address",
          "name": "",
          "type": "address"
        }
      ],
      "stateMutability": "view",
      "type": "function",
      "constant": true
    },
    {
      "inputs": [
        {
          "internalType": "uint256",
          "name": "_amount",
          "type": "uint256"
        }
      ],
      "name": "stackTokens",
      "outputs": [],
      "stateMutability": "nonpayable",
      "type": "function"
    },
    {
      "inputs": [
        {
          "internalType": "uint256",
          "name": "_amount",
          "type": "uint256"
        }
      ],
      "name": "unstackTokens",
      "outputs": [],
      "stateMutability": "nonpayable",
      "type": "function"
    },
    {
      "inputs": [],
      "name": "reindex",
      "outputs": [],
      "stateMutability": "nonpayable",
      "type": "function"
    },
    {
      "inputs": [
        {
          "internalType": "string",
          "name": "_title",
          "type": "string"
        },
        {
          "internalType": "string",
          "name": "_gameName",
          "type": "string"
        },
        {
          "internalType": "string",
          "name": "_team1",
          "type": "string"
        },
        {
          "internalType": "string",
          "name": "_team2",
          "type": "string"
        },
        {
          "internalType": "uint256",
          "name": "_matchDate",
          "type": "uint256"
        }
      ],
      "name": "createMatch",
      "outputs": [],
      "stateMutability": "nonpayable",
      "type": "function"
    },
    {
      "inputs": [
        {
          "internalType": "uint256",
          "name": "_team",
          "type": "uint256"
        }
      ],
      "name": "pickWinner",
      "outputs": [],
      "stateMutability": "nonpayable",
      "type": "function"
    },
    {
      "inputs": [
        {
          "internalType": "uint256",
          "name": "_team",
          "type": "uint256"
        },
        {
          "internalType": "uint256",
          "name": "_amount",
          "type": "uint256"
        }
      ],
      "name": "betOnTeam",
      "outputs": [],
      "stateMutability": "nonpayable",
      "type": "function"
    },
    {
      "inputs": [],
      "name": "getReward",
      "outputs": [],
      "stateMutability": "nonpayable",
      "type": "function"
    },
    {
      "inputs": [
        {
          "internalType": "uint256",
          "name": "_index",
          "type": "uint256"
        }
      ],
      "name": "getValidator",
      "outputs": [
        {
          "internalType": "address",
          "name": "",
          "type": "address"
        }
      ],
      "stateMutability": "view",
      "type": "function",
      "constant": true
    }
  ],
  "bytecode": "0x6080604052603c600d55683635c9adc5de9fffff600e553480156200002357600080fd5b50604051620029e2380380620029e2833981810160405260208110156200004957600080fd5b810190808051906020019092919050505060006200006c6200030560201b60201c565b9050806000806101000a81548173ffffffffffffffffffffffffffffffffffffffff021916908373ffffffffffffffffffffffffffffffffffffffff1602179055508073ffffffffffffffffffffffffffffffffffffffff16600073ffffffffffffffffffffffffffffffffffffffff167f8be0079c531659141344cd1fd0a4f28419497f9722a3daafe3b4186f6b6457e060405160405180910390a35080600160006101000a81548173ffffffffffffffffffffffffffffffffffffffff021916908373ffffffffffffffffffffffffffffffffffffffff1602179055506040518060400160405280600f81526020017f4875676f20767320476f72696c6c650000000000000000000000000000000000815250600260000190805190602001906200019b9291906200030d565b506040518060400160405280601281526020017f436f6d62617420c3a0206d61696e206e7573000000000000000000000000000081525060026001019080519060200190620001ec9291906200030d565b506040518060400160405280600481526020017f4875676f000000000000000000000000000000000000000000000000000000008152506002800190805190602001906200023c9291906200030d565b506040518060400160405280600781526020017f476f72696c6c6500000000000000000000000000000000000000000000000000815250600260030190805190602001906200028d9291906200030d565b50600060026004018190555060016002600a01819055506000600260070181905550600060026008018190555033600260090160006101000a81548173ffffffffffffffffffffffffffffffffffffffff021916908373ffffffffffffffffffffffffffffffffffffffff16021790555050620003b3565b600033905090565b828054600181600116156101000203166002900490600052602060002090601f016020900481019282601f106200035057805160ff191683800117855562000381565b8280016001018555821562000381579182015b828111156200038057825182559160200191906001019062000363565b5b50905062000390919062000394565b5090565b5b80821115620003af57600081600090555060010162000395565b5090565b61261f80620003c36000396000f3fe608060405234801561001057600080fd5b50600436106101005760003560e01c8063a808796c11610097578063f2fde38b11610066578063f2fde38b146105b1578063f433acc3146105f5578063f737d21d146107f5578063facd743b1461082357610100565b8063a808796c146104c5578063b5d89627146104f3578063c09e72711461054b578063ca0b02471461058357610100565b806378197289116100d357806378197289146101a557806385dc9aa9146101fd5780638da5cb5b14610487578063983af4d9146104bb57610100565b80632d2fbb9a1461010557806335aa2e44146101395780633d18b91214610191578063715018a61461019b575b600080fd5b61010d61087d565b604051808273ffffffffffffffffffffffffffffffffffffffff16815260200191505060405180910390f35b6101656004803603602081101561014f57600080fd5b81019080803590602001909291905050506108a3565b604051808273ffffffffffffffffffffffffffffffffffffffff16815260200191505060405180910390f35b6101996108df565b005b6101a3610d12565b005b6101e7600480360360208110156101bb57600080fd5b81019080803573ffffffffffffffffffffffffffffffffffffffff169060200190929190505050610e98565b6040518082815260200191505060405180910390f35b610485600480360360a081101561021357600080fd5b810190808035906020019064010000000081111561023057600080fd5b82018360208201111561024257600080fd5b8035906020019184600183028401116401000000008311171561026457600080fd5b91908080601f016020809104026020016040519081016040528093929190818152602001838380828437600081840152601f19601f820116905080830192505050505050509192919290803590602001906401000000008111156102c757600080fd5b8201836020820111156102d957600080fd5b803590602001918460018302840111640100000000831117156102fb57600080fd5b91908080601f016020809104026020016040519081016040528093929190818152602001838380828437600081840152601f19601f8201169050808301925050505050505091929192908035906020019064010000000081111561035e57600080fd5b82018360208201111561037057600080fd5b8035906020019184600183028401116401000000008311171561039257600080fd5b91908080601f016020809104026020016040519081016040528093929190818152602001838380828437600081840152601f19601f820116905080830192505050505050509192919290803590602001906401000000008111156103f557600080fd5b82018360208201111561040757600080fd5b8035906020019184600183028401116401000000008311171561042957600080fd5b91908080601f016020809104026020016040519081016040528093929190818152602001838380828437600081840152601f19601f82011690508083019250505050505050919291929080359060200190929190505050610eb0565b005b61048f6111c2565b604051808273ffffffffffffffffffffffffffffffffffffffff16815260200191505060405180910390f35b6104c36111eb565b005b6104f1600480360360208110156104db57600080fd5b810190808035906020019092919050505061137b565b005b61051f6004803603602081101561050957600080fd5b810190808035906020019092919050505061168e565b604051808273ffffffffffffffffffffffffffffffffffffffff16815260200191505060405180910390f35b6105816004803603604081101561056157600080fd5b8101908080359060200190929190803590602001909291905050506116cf565b005b6105af6004803603602081101561059957600080fd5b810190808035906020019092919050505061197c565b005b6105f3600480360360208110156105c757600080fd5b81019080803573ffffffffffffffffffffffffffffffffffffffff169060200190929190505050611ca5565b005b6105fd611eb0565b60405180806020018060200180602001806020018a81526020018981526020018881526020018773ffffffffffffffffffffffffffffffffffffffff16815260200186815260200185810385528e818151815260200191508051906020019080838360005b8381101561067d578082015181840152602081019050610662565b50505050905090810190601f1680156106aa5780820380516001836020036101000a031916815260200191505b5085810384528d818151815260200191508051906020019080838360005b838110156106e35780820151818401526020810190506106c8565b50505050905090810190601f1680156107105780820380516001836020036101000a031916815260200191505b5085810383528c818151815260200191508051906020019080838360005b8381101561074957808201518184015260208101905061072e565b50505050905090810190601f1680156107765780820380516001836020036101000a031916815260200191505b5085810382528b818151815260200191508051906020019080838360005b838110156107af578082015181840152602081019050610794565b50505050905090810190601f1680156107dc5780820380516001836020036101000a031916815260200191505b509d505050505050505050505050505060405180910390f35b6108216004803603602081101561080b57600080fd5b810190808035906020019092919050505061216c565b005b6108656004803603602081101561083957600080fd5b81019080803573ffffffffffffffffffffffffffffffffffffffff169060200190929190505050612365565b60405180821515815260200191505060405180910390f35b600160009054906101000a900473ffffffffffffffffffffffffffffffffffffffff1681565b601181815481106108b057fe5b906000526020600020016000915054906101000a900473ffffffffffffffffffffffffffffffffffffffff1681565b60006002600a0154141561095b576040517f08c379a00000000000000000000000000000000000000000000000000000000081526004018080602001828103825260178152602001807f57696e6e6572206e6f74207069636b656420796574202100000000000000000081525060200191505060405180910390fd5b60008060016002600a01541415610b3f576000600260050160003373ffffffffffffffffffffffffffffffffffffffff1673ffffffffffffffffffffffffffffffffffffffff1681526020019081526020016000205411610a07576040517f08c379a000000000000000000000000000000000000000000000000000000000815260040180806020018281038252602e8152602001806125bc602e913960400191505060405180910390fd5b600260050160003373ffffffffffffffffffffffffffffffffffffffff1673ffffffffffffffffffffffffffffffffffffffff1681526020019081526020016000205460026007015481610a5757fe5b0491508160026008015481610a6857fe5b049050600160009054906101000a900473ffffffffffffffffffffffffffffffffffffffff1673ffffffffffffffffffffffffffffffffffffffff1663a9059cbb33836040518363ffffffff1660e01b8152600401808373ffffffffffffffffffffffffffffffffffffffff16815260200182815260200192505050602060405180830381600087803b158015610afe57600080fd5b505af1158015610b12573d6000803e3d6000fd5b505050506040513d6020811015610b2857600080fd5b810190808051906020019092919050505050610d0e565b6000600260060160003373ffffffffffffffffffffffffffffffffffffffff1673ffffffffffffffffffffffffffffffffffffffff1681526020019081526020016000205411610bda576040517f08c379a000000000000000000000000000000000000000000000000000000000815260040180806020018281038252602e8152602001806125bc602e913960400191505060405180910390fd5b600260060160003373ffffffffffffffffffffffffffffffffffffffff1673ffffffffffffffffffffffffffffffffffffffff1681526020019081526020016000205460026008015481610c2a57fe5b0491508160026007015481610c3b57fe5b049050600160009054906101000a900473ffffffffffffffffffffffffffffffffffffffff1673ffffffffffffffffffffffffffffffffffffffff1663a9059cbb33836040518363ffffffff1660e01b8152600401808373ffffffffffffffffffffffffffffffffffffffff16815260200182815260200192505050602060405180830381600087803b158015610cd157600080fd5b505af1158015610ce5573d6000803e3d6000fd5b505050506040513d6020811015610cfb57600080fd5b8101908080519060200190929190505050505b5050565b610d1a612385565b73ffffffffffffffffffffffffffffffffffffffff1660008054906101000a900473ffffffffffffffffffffffffffffffffffffffff1673ffffffffffffffffffffffffffffffffffffffff1614610dda576040517f08c379a00000000000000000000000000000000000000000000000000000000081526004018080602001828103825260208152602001807f4f776e61626c653a2063616c6c6572206973206e6f7420746865206f776e657281525060200191505060405180910390fd5b600073ffffffffffffffffffffffffffffffffffffffff1660008054906101000a900473ffffffffffffffffffffffffffffffffffffffff1673ffffffffffffffffffffffffffffffffffffffff167f8be0079c531659141344cd1fd0a4f28419497f9722a3daafe3b4186f6b6457e060405160405180910390a360008060006101000a81548173ffffffffffffffffffffffffffffffffffffffff021916908373ffffffffffffffffffffffffffffffffffffffff160217905550565b600f6020528060005260406000206000915090505481565b610eb8612385565b73ffffffffffffffffffffffffffffffffffffffff1660008054906101000a900473ffffffffffffffffffffffffffffffffffffffff1673ffffffffffffffffffffffffffffffffffffffff1614610f78576040517f08c379a00000000000000000000000000000000000000000000000000000000081526004018080602001828103825260208152602001807f4f776e61626c653a2063616c6c6572206973206e6f7420746865206f776e657281525060200191505060405180910390fd5b600d546006024201600260040154108015610f99575060006002600a015414155b61100b576040517f08c379a00000000000000000000000000000000000000000000000000000000081526004018080602001828103825260178152602001807f416c726561647920612070656e64696e67206d6174636800000000000000000081525060200191505060405180910390fd5b601060003373ffffffffffffffffffffffffffffffffffffffff1673ffffffffffffffffffffffffffffffffffffffff16815260200190815260200160002060009054906101000a900460ff166110ad576040517f08c379a00000000000000000000000000000000000000000000000000000000081526004018080602001828103825260438152602001806125796043913960600191505060405180910390fd5b600d5460060242018111611129576040517f08c379a000000000000000000000000000000000000000000000000000000000815260040180806020018281038252601c8152602001807f54686973206d617463682073746172747320746f206561726c7920210000000081525060200191505060405180910390fd5b846002600001908051906020019061114292919061238d565b50836002600101908051906020019061115c92919061238d565b508260028001908051906020019061117592919061238d565b50816002600301908051906020019061118f92919061238d565b508060026004018190555060006002600a0181905550600060026007018190555060006002600801819055505050505050565b60008060009054906101000a900473ffffffffffffffffffffffffffffffffffffffff16905090565b6060601180548060200260200160405190810160405280929190818152602001828054801561126f57602002820191906000526020600020905b8160009054906101000a900473ffffffffffffffffffffffffffffffffffffffff1673ffffffffffffffffffffffffffffffffffffffff1681526020019060010190808311611225575b5050505050905060116000611284919061240d565b60005b815181101561137757601060008383815181106112a057fe5b602002602001015173ffffffffffffffffffffffffffffffffffffffff1673ffffffffffffffffffffffffffffffffffffffff16815260200190815260200160002060009054906101000a900460ff161561136c57601182828151811061130357fe5b60200260200101519080600181540180825580915050600190039060005260206000200160009091909190916101000a81548173ffffffffffffffffffffffffffffffffffffffff021916908373ffffffffffffffffffffffffffffffffffffffff1602179055505b600181019050611287565b5050565b600081116113f1576040517f08c379a00000000000000000000000000000000000000000000000000000000081526004018080602001828103825260128152602001807f616d6f756e742063616e6e6f742062652030000000000000000000000000000081525060200191505060405180910390fd5b600160009054906101000a900473ffffffffffffffffffffffffffffffffffffffff1673ffffffffffffffffffffffffffffffffffffffff166323b872dd3330846040518463ffffffff1660e01b8152600401808473ffffffffffffffffffffffffffffffffffffffff1681526020018373ffffffffffffffffffffffffffffffffffffffff1681526020018281526020019350505050602060405180830381600087803b1580156114a257600080fd5b505af11580156114b6573d6000803e3d6000fd5b505050506040513d60208110156114cc57600080fd5b81019080805190602001909291905050501561168b5780600f60003373ffffffffffffffffffffffffffffffffffffffff1673ffffffffffffffffffffffffffffffffffffffff16815260200190815260200160002060008282540192505081905550601060003373ffffffffffffffffffffffffffffffffffffffff1673ffffffffffffffffffffffffffffffffffffffff16815260200190815260200160002060009054906101000a900460ff161580156115c95750600e54600f60003373ffffffffffffffffffffffffffffffffffffffff1673ffffffffffffffffffffffffffffffffffffffff16815260200190815260200160002054115b1561168a576001601060003373ffffffffffffffffffffffffffffffffffffffff1673ffffffffffffffffffffffffffffffffffffffff16815260200190815260200160002060006101000a81548160ff0219169083151502179055506011339080600181540180825580915050600190039060005260206000200160009091909190916101000a81548173ffffffffffffffffffffffffffffffffffffffff021916908373ffffffffffffffffffffffffffffffffffffffff1602179055505b5b50565b60006011828154811061169d57fe5b9060005260206000200160009054906101000a900473ffffffffffffffffffffffffffffffffffffffff169050919050565b60018214806116de5750600282145b611750576040517f08c379a000000000000000000000000000000000000000000000000000000000815260040180806020018281038252601c8152602001807f506c6561736520626574206f6e20612076616c6964207465616d20210000000081525060200191505060405180910390fd5b600d544201600260040154116117b1576040517f08c379a000000000000000000000000000000000000000000000000000000000815260040180806020018281038252602381526020018061252b6023913960400191505060405180910390fd5b600160009054906101000a900473ffffffffffffffffffffffffffffffffffffffff1673ffffffffffffffffffffffffffffffffffffffff166323b872dd3330846040518463ffffffff1660e01b8152600401808473ffffffffffffffffffffffffffffffffffffffff1681526020018373ffffffffffffffffffffffffffffffffffffffff1681526020018281526020019350505050602060405180830381600087803b15801561186257600080fd5b505af1158015611876573d6000803e3d6000fd5b505050506040513d602081101561188c57600080fd5b810190808051906020019092919050505015611978576001821415611913578060026007016000828254019250508190555080600260050160003373ffffffffffffffffffffffffffffffffffffffff1673ffffffffffffffffffffffffffffffffffffffff16815260200190815260200160002060008282540192505081905550611977565b8060026008016000828254019250508190555080600260060160003373ffffffffffffffffffffffffffffffffffffffff1673ffffffffffffffffffffffffffffffffffffffff168152602001908152602001600020600082825401925050819055505b5b5050565b600081116119f2576040517f08c379a00000000000000000000000000000000000000000000000000000000081526004018080602001828103825260128152602001807f616d6f756e742063616e6e6f742062652030000000000000000000000000000081525060200191505060405180910390fd5b80600f60003373ffffffffffffffffffffffffffffffffffffffff1673ffffffffffffffffffffffffffffffffffffffff168152602001908152602001600020541015611a8a576040517f08c379a000000000000000000000000000000000000000000000000000000000815260040180806020018281038252602b81526020018061254e602b913960400191505060405180910390fd5b600160009054906101000a900473ffffffffffffffffffffffffffffffffffffffff1673ffffffffffffffffffffffffffffffffffffffff1663a9059cbb33836040518363ffffffff1660e01b8152600401808373ffffffffffffffffffffffffffffffffffffffff16815260200182815260200192505050602060405180830381600087803b158015611b1d57600080fd5b505af1158015611b31573d6000803e3d6000fd5b505050506040513d6020811015611b4757600080fd5b810190808051906020019092919050505015611ca25780600f60003373ffffffffffffffffffffffffffffffffffffffff1673ffffffffffffffffffffffffffffffffffffffff16815260200190815260200160002060008282540392505081905550601060003373ffffffffffffffffffffffffffffffffffffffff1673ffffffffffffffffffffffffffffffffffffffff16815260200190815260200160002060009054906101000a900460ff168015611c435750600e54600f60003373ffffffffffffffffffffffffffffffffffffffff1673ffffffffffffffffffffffffffffffffffffffff16815260200190815260200160002054105b15611ca1576000601060003373ffffffffffffffffffffffffffffffffffffffff1673ffffffffffffffffffffffffffffffffffffffff16815260200190815260200160002060006101000a81548160ff0219169083151502179055505b5b50565b611cad612385565b73ffffffffffffffffffffffffffffffffffffffff1660008054906101000a900473ffffffffffffffffffffffffffffffffffffffff1673ffffffffffffffffffffffffffffffffffffffff1614611d6d576040517f08c379a00000000000000000000000000000000000000000000000000000000081526004018080602001828103825260208152602001807f4f776e61626c653a2063616c6c6572206973206e6f7420746865206f776e657281525060200191505060405180910390fd5b600073ffffffffffffffffffffffffffffffffffffffff168173ffffffffffffffffffffffffffffffffffffffff161415611df3576040517f08c379a000000000000000000000000000000000000000000000000000000000815260040180806020018281038252602681526020018061244c6026913960400191505060405180910390fd5b8073ffffffffffffffffffffffffffffffffffffffff1660008054906101000a900473ffffffffffffffffffffffffffffffffffffffff1673ffffffffffffffffffffffffffffffffffffffff167f8be0079c531659141344cd1fd0a4f28419497f9722a3daafe3b4186f6b6457e060405160405180910390a3806000806101000a81548173ffffffffffffffffffffffffffffffffffffffff021916908373ffffffffffffffffffffffffffffffffffffffff16021790555050565b6002806000018054600181600116156101000203166002900480601f016020809104026020016040519081016040528092919081815260200182805460018160011615610100020316600290048015611f4a5780601f10611f1f57610100808354040283529160200191611f4a565b820191906000526020600020905b815481529060010190602001808311611f2d57829003601f168201915b505050505090806001018054600181600116156101000203166002900480601f016020809104026020016040519081016040528092919081815260200182805460018160011615610100020316600290048015611fe85780601f10611fbd57610100808354040283529160200191611fe8565b820191906000526020600020905b815481529060010190602001808311611fcb57829003601f168201915b505050505090806002018054600181600116156101000203166002900480601f0160208091040260200160405190810160405280929190818152602001828054600181600116156101000203166002900480156120865780601f1061205b57610100808354040283529160200191612086565b820191906000526020600020905b81548152906001019060200180831161206957829003601f168201915b505050505090806003018054600181600116156101000203166002900480601f0160208091040260200160405190810160405280929190818152602001828054600181600116156101000203166002900480156121245780601f106120f957610100808354040283529160200191612124565b820191906000526020600020905b81548152906001019060200180831161210757829003601f168201915b5050505050908060040154908060070154908060080154908060090160009054906101000a900473ffffffffffffffffffffffffffffffffffffffff169080600a0154905089565b3373ffffffffffffffffffffffffffffffffffffffff16600260090160009054906101000a900473ffffffffffffffffffffffffffffffffffffffff1673ffffffffffffffffffffffffffffffffffffffff1614612215576040517f08c379a000000000000000000000000000000000000000000000000000000000815260040180806020018281038252602f81526020018061249f602f913960400191505060405180910390fd5b60006002600a015414612290576040517f08c379a00000000000000000000000000000000000000000000000000000000081526004018080602001828103825260178152602001807f57696e6e657220616c7265616479207069636b6564202100000000000000000081525060200191505060405180910390fd5b600d546006024201600260040154106122f4576040517f08c379a000000000000000000000000000000000000000000000000000000000815260040180806020018281038252605d8152602001806124ce605d913960600191505060405180910390fd5b60018114806123035750600281145b612358576040517f08c379a000000000000000000000000000000000000000000000000000000000815260040180806020018281038252602d815260200180612472602d913960400191505060405180910390fd5b806002600a018190555050565b60106020528060005260406000206000915054906101000a900460ff1681565b600033905090565b828054600181600116156101000203166002900490600052602060002090601f016020900481019282601f106123ce57805160ff19168380011785556123fc565b828001600101855582156123fc579182015b828111156123fb5782518255916020019190600101906123e0565b5b509050612409919061242e565b5090565b508054600082559060005260206000209081019061242b919061242e565b50565b5b8082111561244757600081600090555060010161242f565b509056fe4f776e61626c653a206e6577206f776e657220697320746865207a65726f2061646472657373506c65617365207069636b20612076616c6964207465616d203a207465616d2031206f72207465616d20322021596f7520617265206e6f7420612076616c696461746f7220666f72207468652070656e64696e67206d617463682021596f752077696c6c2062652061626c6520746f207069636b20612077696e6e657220362074696d655f616d6f756e74202873656520636f6e7374206465636c61726174696f6e29206166746572206d61746368207374617274656420216974277320746f206c61746520746f20626574206f6e2074686973206d617463682021416d6f756e742063616e2774206265207375706572696f72206f66207374616b696e672062616c616e6365596f75206e65656420746f20737461636b2031303030204245544820746f20626520612076616c696461746f7220616e642070726f706f7365206d6174636865732021596f75206265742030206f6e207468652077696e6e65722c206e6f2072657761726420617661696c61626c652021a26469706673582212200dfca65cda88656721c3d49589b6895b435cb9219f512f3a92e66a540e1b31a164736f6c634300060c0033",
  "immutableReferences": {},
  "source": "// SPDX-License-Identifier: MIT\r\npragma solidity ^0.6.0;\r\n\r\nimport \"@openzeppelin/contracts/access/Ownable.sol\";\r\nimport \"./BethToken.sol\";\r\n\r\ncontract Beth is Ownable {\r\n\r\n    BethToken public bethToken;\r\n\r\n    struct Match {\r\n        string title;\r\n        string gameName;\r\n        string team1;\r\n        string team2;\r\n        uint matchDate;\r\n\r\n        mapping (address => uint) team1UserBetAmount;\r\n        mapping (address => uint) team2UserBetAmount;\r\n        uint team1TotalBetAmount;\r\n        uint team2TotalBetAmount;\r\n\r\n        //mapping (address => uint) pickedWinner;\r\n        //mapping (address => bool) isValidator;\r\n        //address[2] validators;\r\n        address validator;\r\n        uint winner;\r\n    }\r\n\r\n    Match public actualMatch;\r\n\r\n    uint TIME_AMOUNT = 1 minutes;\r\n\r\n    constructor(BethToken _bethToken) public {\r\n        bethToken = _bethToken;\r\n\r\n        //create default empty match\r\n        actualMatch.title = \"Hugo vs Gorille\";\r\n        actualMatch.gameName = \"Combat  main nus\";\r\n        actualMatch.team1 = \"Hugo\";\r\n        actualMatch.team2 = \"Gorille\";\r\n        actualMatch.matchDate = 0;\r\n        actualMatch.winner = 1;\r\n        actualMatch.team1TotalBetAmount = 0;\r\n        actualMatch.team2TotalBetAmount = 0;\r\n        actualMatch.validator = msg.sender;\r\n    }\r\n\r\n    uint256 validatorMinimalStack = 999999999999999999999; //999.999 tokens\r\n\r\n    //all validators\r\n    mapping (address => uint256) public stackingBalance;\r\n    mapping (address => bool) public isValidator;\r\n    address[] public validators;\r\n\r\n    ////////////////////////////////\r\n    //    validators functions   //\r\n    //////////////////////////////\r\n\r\n    function stackTokens (uint _amount) public {\r\n        require(_amount > 0, \"amount cannot be 0\");\r\n\r\n        if (bethToken.transferFrom(msg.sender, address(this), _amount)) {\r\n            stackingBalance[msg.sender] += _amount;\r\n\r\n            //become validator is enough stack\r\n            if (!isValidator[msg.sender] && stackingBalance[msg.sender] > validatorMinimalStack) {\r\n                isValidator[msg.sender] = true;\r\n                validators.push(msg.sender);\r\n            }\r\n        }\r\n    }\r\n\r\n    function unstackTokens(uint _amount) public {\r\n        require(_amount > 0, \"amount cannot be 0\");\r\n        require(stackingBalance[msg.sender] >= _amount, \"Amount can't be superior of staking balance\");\r\n\r\n        if (bethToken.transfer(msg.sender, _amount)) {\r\n            stackingBalance[msg.sender] -= _amount;\r\n            if (isValidator[msg.sender] && stackingBalance[msg.sender] < validatorMinimalStack) {\r\n                isValidator[msg.sender] = false;\r\n            }\r\n        }\r\n    }\r\n\r\n    function reindex() public {\r\n        address[] memory oldValidators = validators;\r\n        delete validators;\r\n        for (uint i = 0; i < oldValidators.length; i+=1) {\r\n            if (isValidator[oldValidators[i]]) {\r\n                validators.push(oldValidators[i]);\r\n            }\r\n        }\r\n    } //todo check\r\n\r\n    function punish(address _validator, uint _amount) private {\r\n        stackingBalance[_validator] -= _amount; //punished for not voting\r\n        if (stackingBalance[_validator] < validatorMinimalStack) {\r\n            isValidator[_validator] = false;\r\n        }\r\n    }\r\n\r\n    function rewardValidator(address _address, uint _totalBet) private {\r\n        uint amountForValidators = SafeMath.div(_totalBet, 2); //5% for validators\r\n        stackingBalance[_address] += SafeMath.div(amountForValidators, 2);\r\n    }\r\n\r\n    ////////////////////////////////\r\n    //       Match functions     //\r\n    //////////////////////////////\r\n\r\n    function createMatch(string memory _title, string memory _gameName, string memory _team1, string memory _team2, uint _matchDate) public onlyOwner {\r\n        require(actualMatch.matchDate < block.timestamp + (6*TIME_AMOUNT) && actualMatch.winner != 0, \"Already a pending match\"); //can't init a new match if previous was less than 6 TIME_AMOUNT ago\r\n        require(isValidator[msg.sender], \"You need to stack 1000 BETH to be a validator and propose matches !\");\r\n\r\n        //valid match parameters\r\n        require(_matchDate > block.timestamp + (6*TIME_AMOUNT), \"This match starts to early !\");\r\n\r\n//        if (actualMatch.matchDate > 0) { //reset validators only after first match to fix bug when deploying contract (because no validators when deploying)\r\n//            resetValidators();\r\n//        }\r\n//        else {\r\n//            pickValidators();\r\n//        }\r\n\r\n        actualMatch.title = _title;\r\n        actualMatch.gameName = _gameName;\r\n        actualMatch.team1 = _team1;\r\n        actualMatch.team2 = _team2;\r\n        actualMatch.matchDate = _matchDate;\r\n        actualMatch.winner = 0;\r\n        actualMatch.team1TotalBetAmount = 0;\r\n        actualMatch.team2TotalBetAmount = 0;\r\n    }\r\n\r\n    function pickWinner(uint _team) public {\r\n        require(actualMatch.validator == msg.sender, \"You are not a validator for the pending match !\");\r\n        require(actualMatch.winner == 0, \"Winner already picked !\");\r\n        require(actualMatch.matchDate < block.timestamp + (6*TIME_AMOUNT), \"You will be able to pick a winner 6 time_amount (see const declaration) after match started !\");\r\n        require(_team == 1 || _team == 2, \"Please pick a valid team : team 1 or team 2 !\");\r\n        //require(actualMatch.pickedWinner[msg.sender] == 0, \"You already voted !\");\r\n\r\n        actualMatch.winner = _team;\r\n    }\r\n\r\n    function betOnTeam(uint _team, uint _amount) public {\r\n        require(_team == 1 || _team == 2, \"Please bet on a valid team !\");\r\n        require(actualMatch.matchDate > block.timestamp + TIME_AMOUNT, \"it's to late to bet on this match !\");\r\n        if (bethToken.transferFrom(msg.sender, address(this), _amount)) {\r\n            if (_team == 1) {\r\n                actualMatch.team1TotalBetAmount += _amount;\r\n                actualMatch.team1UserBetAmount[msg.sender] += _amount;\r\n            }\r\n            else {\r\n                actualMatch.team2TotalBetAmount += _amount;\r\n                actualMatch.team2UserBetAmount[msg.sender] += _amount;\r\n            }\r\n        }\r\n    }\r\n\r\n    function getReward() public {\r\n        require(actualMatch.winner != 0, \"Winner not picked yet !\");\r\n        uint ratio;\r\n        //uint amountForValidators;\r\n        uint deservedAmount;\r\n        if (actualMatch.winner == 1) {\r\n            require(actualMatch.team1UserBetAmount[msg.sender] > 0, \"You bet 0 on the winner, no reward available !\");\r\n            //amountForValidators = actualMatch.team1TotalBetAmount / 20; //5% for validators\r\n            ratio = actualMatch.team1TotalBetAmount / actualMatch.team1UserBetAmount[msg.sender];\r\n            deservedAmount = actualMatch.team2TotalBetAmount / ratio;\r\n            bethToken.transfer(msg.sender, deservedAmount);\r\n        }\r\n        else {\r\n            require(actualMatch.team2UserBetAmount[msg.sender] > 0, \"You bet 0 on the winner, no reward available !\");\r\n            //amountForValidators = actualMatch.team2TotalBetAmount / 20; //5% for validators\r\n            ratio = actualMatch.team2TotalBetAmount / actualMatch.team2UserBetAmount[msg.sender];\r\n            deservedAmount = actualMatch.team1TotalBetAmount / ratio;\r\n            bethToken.transfer(msg.sender, deservedAmount);\r\n        }\r\n    }\r\n\r\n    function getValidator(uint _index) public view returns (address) {\r\n        return validators[_index];\r\n    }\r\n\r\n    ///////////////////\r\n    //  oracle      //\r\n    /////////////////\r\n\r\n    //    function pickValidators() private {\r\n    //        uint random = randomFromBlock();\r\n    //        uint randomValidator;\r\n    //        for (uint i = 0; i < 2; i +=1) {\r\n    //            randomValidator = randomFromNumber(random);\r\n    //            while(actualMatch.isValidator[validators[randomValidator]]) {\r\n    //                randomValidator = randomFromNumber(random);\r\n    //            }\r\n    //            actualMatch.isValidator[validators[randomValidator]] = true;\r\n    //            actualMatch.validators[i] = validators[randomValidator];\r\n    //        }\r\n    //    } //todo check\r\n\r\n    //    function randomFromBlock() private view returns (uint) {\r\n    //        uint randomHash = uint(keccak256(abi.encodePacked(block.timestamp, block.difficulty)));\r\n    //        return randomHash % 1000;\r\n    //    }\r\n    //\r\n    //    function randomFromNumber(uint number) private view returns (uint) {\r\n    //        uint randomHash = uint(keccak256(abi.encodePacked(number)));\r\n    //        return randomHash % validators.length;\r\n    //    }\r\n\r\n//    function resetValidators() private {\r\n//        for (uint i = 0; i < 2; i += 1) {\r\n//            actualMatch.pickedWinner[actualMatch.validators[i]] = 0;\r\n//            actualMatch.isValidator[actualMatch.validators[i]] = false;\r\n//        }\r\n//        delete actualMatch.validators;\r\n//        pickValidators();\r\n//    }\r\n\r\n//    function finishMatch() public {\r\n//        require(actualMatch.winner == 0, \"Winner of this match already picked !\");\r\n//        require(actualMatch.matchDate < block.timestamp + (6*TIME_AMOUNT), \"need to wait 6 TIME_AMOUNT so validators have time to pick winners !\");\r\n//\r\n//        uint team1 = 0;\r\n//        uint team2 = 0;\r\n//        for (uint i = 0; i < 2; i += 1) {\r\n//            if (actualMatch.pickedWinner[actualMatch.validators[i]] == 0) {\r\n//                punish(actualMatch.validators[i], 50); //punish for not voting 50 tokens\r\n//            }\r\n//            else {\r\n//                if (actualMatch.pickedWinner[actualMatch.validators[i]] == 1) team1 += 1;\r\n//                else team2 += 1;\r\n//            }\r\n//        }\r\n//\r\n//        if (team1 >= team2) actualMatch.winner = 1; // no tie for the moment implemented in later updates\r\n//        else actualMatch.winner = 2;\r\n//\r\n//        for (uint i = 0; i < 2; i += 1) {\r\n//            if (actualMatch.pickedWinner[actualMatch.validators[i]] != actualMatch.winner) {\r\n//                punish(actualMatch.validators[i], 100); //punish for not voting false 100 tokens\r\n//            }\r\n//            else {\r\n//                rewardValidator(actualMatch.validators[i], actualMatch.team1TotalBetAmount + actualMatch.team2TotalBetAmount); //reward good voters with percentage of total bet\r\n//            }\r\n//        }\r\n//    }\r\n\r\n}\r\n",
  "sourcePath": "F:/Utilisateurs/louis/Documents/beth/src/contracts/Beth.sol",
  "compiler": {
    "name": "solc",
    "version": "0.6.12+commit.27d51765.Emscripten.clang"
  },
  "schemaVersion": "3.2.3",
  "updatedAt": "2021-02-04T17:17:54.316Z",
  "networkType": "ethereum",
  "devdoc": {
    "kind": "dev",
    "methods": {
      "owner()": {
        "details": "Returns the address of the current owner."
      },
      "renounceOwnership()": {
        "details": "Leaves the contract without owner. It will not be possible to call `onlyOwner` functions anymore. Can only be called by the current owner. NOTE: Renouncing ownership will leave the contract without an owner, thereby removing any functionality that is only available to the owner."
      },
      "transferOwnership(address)": {
        "details": "Transfers ownership of the contract to a new account (`newOwner`). Can only be called by the current owner."
      }
    },
    "version": 1
  },
  "userdoc": {
    "kind": "user",
    "methods": {},
    "version": 1
  }
}