{
  "contractName": "Beth",
  "abi": [
    {
      "inputs": [
        {
          "internalType": "contract BethToken",
          "name": "_bethToken",
          "type": "address"
        }
      ],
      "stateMutability": "nonpayable",
      "type": "constructor"
    },
    {
      "anonymous": false,
      "inputs": [
        {
          "indexed": true,
          "internalType": "address",
          "name": "previousOwner",
          "type": "address"
        },
        {
          "indexed": true,
          "internalType": "address",
          "name": "newOwner",
          "type": "address"
        }
      ],
      "name": "OwnershipTransferred",
      "type": "event"
    },
    {
      "inputs": [],
      "name": "actualMatch",
      "outputs": [
        {
          "internalType": "string",
          "name": "title",
          "type": "string"
        },
        {
          "internalType": "string",
          "name": "gameName",
          "type": "string"
        },
        {
          "internalType": "string",
          "name": "team1",
          "type": "string"
        },
        {
          "internalType": "string",
          "name": "team2",
          "type": "string"
        },
        {
          "internalType": "uint256",
          "name": "matchDate",
          "type": "uint256"
        },
        {
          "internalType": "uint256",
          "name": "team1TotalBetAmount",
          "type": "uint256"
        },
        {
          "internalType": "uint256",
          "name": "team2TotalBetAmount",
          "type": "uint256"
        },
        {
          "internalType": "uint256",
          "name": "winner",
          "type": "uint256"
        }
      ],
      "stateMutability": "view",
      "type": "function",
      "constant": true
    },
    {
      "inputs": [],
      "name": "bethToken",
      "outputs": [
        {
          "internalType": "contract BethToken",
          "name": "",
          "type": "address"
        }
      ],
      "stateMutability": "view",
      "type": "function",
      "constant": true
    },
    {
      "inputs": [
        {
          "internalType": "address",
          "name": "",
          "type": "address"
        }
      ],
      "name": "isValidatingActualMatch",
      "outputs": [
        {
          "internalType": "bool",
          "name": "",
          "type": "bool"
        }
      ],
      "stateMutability": "view",
      "type": "function",
      "constant": true
    },
    {
      "inputs": [
        {
          "internalType": "address",
          "name": "",
          "type": "address"
        }
      ],
      "name": "isValidator",
      "outputs": [
        {
          "internalType": "bool",
          "name": "",
          "type": "bool"
        }
      ],
      "stateMutability": "view",
      "type": "function",
      "constant": true
    },
    {
      "inputs": [],
      "name": "owner",
      "outputs": [
        {
          "internalType": "address",
          "name": "",
          "type": "address"
        }
      ],
      "stateMutability": "view",
      "type": "function",
      "constant": true
    },
    {
      "inputs": [],
      "name": "renounceOwnership",
      "outputs": [],
      "stateMutability": "nonpayable",
      "type": "function"
    },
    {
      "inputs": [
        {
          "internalType": "address",
          "name": "",
          "type": "address"
        }
      ],
      "name": "stackingBalance",
      "outputs": [
        {
          "internalType": "uint256",
          "name": "",
          "type": "uint256"
        }
      ],
      "stateMutability": "view",
      "type": "function",
      "constant": true
    },
    {
      "inputs": [
        {
          "internalType": "address",
          "name": "newOwner",
          "type": "address"
        }
      ],
      "name": "transferOwnership",
      "outputs": [],
      "stateMutability": "nonpayable",
      "type": "function"
    },
    {
      "inputs": [
        {
          "internalType": "uint256",
          "name": "",
          "type": "uint256"
        }
      ],
      "name": "validators",
      "outputs": [
        {
          "internalType": "address",
          "name": "",
          "type": "address"
        }
      ],
      "stateMutability": "view",
      "type": "function",
      "constant": true
    },
    {
      "inputs": [
        {
          "internalType": "uint256",
          "name": "_amount",
          "type": "uint256"
        }
      ],
      "name": "stackTokens",
      "outputs": [],
      "stateMutability": "nonpayable",
      "type": "function"
    },
    {
      "inputs": [
        {
          "internalType": "uint256",
          "name": "_amount",
          "type": "uint256"
        }
      ],
      "name": "unstackTokens",
      "outputs": [],
      "stateMutability": "nonpayable",
      "type": "function"
    },
    {
      "inputs": [],
      "name": "reindex",
      "outputs": [],
      "stateMutability": "nonpayable",
      "type": "function"
    },
    {
      "inputs": [
        {
          "internalType": "string",
          "name": "_title",
          "type": "string"
        },
        {
          "internalType": "string",
          "name": "_gameName",
          "type": "string"
        },
        {
          "internalType": "string",
          "name": "_team1",
          "type": "string"
        },
        {
          "internalType": "string",
          "name": "_team2",
          "type": "string"
        },
        {
          "internalType": "uint256",
          "name": "_matchDate",
          "type": "uint256"
        }
      ],
      "name": "createMatch",
      "outputs": [],
      "stateMutability": "nonpayable",
      "type": "function"
    },
    {
      "inputs": [
        {
          "internalType": "uint256",
          "name": "_team",
          "type": "uint256"
        }
      ],
      "name": "pickWinner",
      "outputs": [],
      "stateMutability": "nonpayable",
      "type": "function"
    },
    {
      "inputs": [],
      "name": "finishMatch",
      "outputs": [],
      "stateMutability": "nonpayable",
      "type": "function"
    },
    {
      "inputs": [
        {
          "internalType": "uint256",
          "name": "_team",
          "type": "uint256"
        },
        {
          "internalType": "uint256",
          "name": "_amount",
          "type": "uint256"
        }
      ],
      "name": "betOnTeam",
      "outputs": [],
      "stateMutability": "nonpayable",
      "type": "function"
    },
    {
      "inputs": [],
      "name": "getReward",
      "outputs": [],
      "stateMutability": "nonpayable",
      "type": "function"
    }
  ],
  "bytecode": "0x6080604052603c602255683635c9adc5dea000006023553480156200002357600080fd5b50604051620035b5380380620035b5833981810160405260208110156200004957600080fd5b810190808051906020019092919050505060006200006c620002c460201b60201c565b9050806000806101000a81548173ffffffffffffffffffffffffffffffffffffffff021916908373ffffffffffffffffffffffffffffffffffffffff1602179055508073ffffffffffffffffffffffffffffffffffffffff16600073ffffffffffffffffffffffffffffffffffffffff167f8be0079c531659141344cd1fd0a4f28419497f9722a3daafe3b4186f6b6457e060405160405180910390a35080600160006101000a81548173ffffffffffffffffffffffffffffffffffffffff021916908373ffffffffffffffffffffffffffffffffffffffff1602179055506040518060400160405280600f81526020017f4875676f20767320476f72696c6c650000000000000000000000000000000000815250600260000190805190602001906200019b929190620002cc565b506040518060400160405280601281526020017f436f6d62617420c3a0206d61696e206e7573000000000000000000000000000081525060026001019080519060200190620001ec929190620002cc565b506040518060400160405280600481526020017f4875676f000000000000000000000000000000000000000000000000000000008152506002800190805190602001906200023c929190620002cc565b506040518060400160405280600781526020017f476f72696c6c6500000000000000000000000000000000000000000000000000815250600260030190805190602001906200028d929190620002cc565b50636017215860026004018190555060016002601f0181905550600060026007018190555060006002600801819055505062000372565b600033905090565b828054600181600116156101000203166002900490600052602060002090601f016020900481019282601f106200030f57805160ff191683800117855562000340565b8280016001018555821562000340579182015b828111156200033f57825182559160200191906001019062000322565b5b5090506200034f919062000353565b5090565b5b808211156200036e57600081600090555060010162000354565b5090565b61323380620003826000396000f3fe608060405234801561001057600080fd5b506004361061010b5760003560e01c8063a808796c116100a2578063f2fde38b11610071578063f2fde38b146105be578063f3b00ad514610602578063f433acc31461060c578063f737d21d146107ef578063facd743b1461081d5761010b565b8063a808796c146104d0578063c09e7271146104fe578063ca0b024714610536578063d32ead67146105645761010b565b806378197289116100de57806378197289146101b057806385dc9aa9146102085780638da5cb5b14610492578063983af4d9146104c65761010b565b80632d2fbb9a1461011057806335aa2e44146101445780633d18b9121461019c578063715018a6146101a6575b600080fd5b610118610877565b604051808273ffffffffffffffffffffffffffffffffffffffff16815260200191505060405180910390f35b6101706004803603602081101561015a57600080fd5b810190808035906020019092919050505061089d565b604051808273ffffffffffffffffffffffffffffffffffffffff16815260200191505060405180910390f35b6101a46108d9565b005b6101ae610d73565b005b6101f2600480360360208110156101c657600080fd5b81019080803573ffffffffffffffffffffffffffffffffffffffff169060200190929190505050610ef9565b6040518082815260200191505060405180910390f35b610490600480360360a081101561021e57600080fd5b810190808035906020019064010000000081111561023b57600080fd5b82018360208201111561024d57600080fd5b8035906020019184600183028401116401000000008311171561026f57600080fd5b91908080601f016020809104026020016040519081016040528093929190818152602001838380828437600081840152601f19601f820116905080830192505050505050509192919290803590602001906401000000008111156102d257600080fd5b8201836020820111156102e457600080fd5b8035906020019184600183028401116401000000008311171561030657600080fd5b91908080601f016020809104026020016040519081016040528093929190818152602001838380828437600081840152601f19601f8201169050808301925050505050505091929192908035906020019064010000000081111561036957600080fd5b82018360208201111561037b57600080fd5b8035906020019184600183028401116401000000008311171561039d57600080fd5b91908080601f016020809104026020016040519081016040528093929190818152602001838380828437600081840152601f19601f8201169050808301925050505050505091929192908035906020019064010000000081111561040057600080fd5b82018360208201111561041257600080fd5b8035906020019184600183028401116401000000008311171561043457600080fd5b91908080601f016020809104026020016040519081016040528093929190818152602001838380828437600081840152601f19601f82011690508083019250505050505050919291929080359060200190929190505050610f11565b005b61049a61122b565b604051808273ffffffffffffffffffffffffffffffffffffffff16815260200191505060405180910390f35b6104ce611254565b005b6104fc600480360360208110156104e657600080fd5b81019080803590602001909291905050506113e4565b005b6105346004803603604081101561051457600080fd5b810190808035906020019092919080359060200190929190505050611694565b005b6105626004803603602081101561054c57600080fd5b8101908080359060200190929190505050611941565b005b6105a66004803603602081101561057a57600080fd5b81019080803573ffffffffffffffffffffffffffffffffffffffff169060200190929190505050611c88565b60405180821515815260200191505060405180910390f35b610600600480360360208110156105d457600080fd5b81019080803573ffffffffffffffffffffffffffffffffffffffff169060200190929190505050611ca8565b005b61060a611eb3565b005b610614612222565b604051808060200180602001806020018060200189815260200188815260200187815260200186815260200185810385528d818151815260200191508051906020019080838360005b8381101561067857808201518184015260208101905061065d565b50505050905090810190601f1680156106a55780820380516001836020036101000a031916815260200191505b5085810384528c818151815260200191508051906020019080838360005b838110156106de5780820151818401526020810190506106c3565b50505050905090810190601f16801561070b5780820380516001836020036101000a031916815260200191505b5085810383528b818151815260200191508051906020019080838360005b83811015610744578082015181840152602081019050610729565b50505050905090810190601f1680156107715780820380516001836020036101000a031916815260200191505b5085810382528a818151815260200191508051906020019080838360005b838110156107aa57808201518184015260208101905061078f565b50505050905090810190601f1680156107d75780820380516001836020036101000a031916815260200191505b509c5050505050505050505050505060405180910390f35b61081b6004803603602081101561080557600080fd5b81019080803590602001909291905050506124b8565b005b61085f6004803603602081101561083357600080fd5b81019080803573ffffffffffffffffffffffffffffffffffffffff169060200190929190505050612727565b60405180821515815260200191505060405180910390f35b600160009054906101000a900473ffffffffffffffffffffffffffffffffffffffff1681565b602681815481106108aa57fe5b906000526020600020016000915054906101000a900473ffffffffffffffffffffffffffffffffffffffff1681565b60006002601f01541415610955576040517f08c379a00000000000000000000000000000000000000000000000000000000081526004018080602001828103825260178152602001807f57696e6e6572206e6f74207069636b656420796574202100000000000000000081525060200191505060405180910390fd5b600080600060016002601f01541415610b6d576000600260050160003373ffffffffffffffffffffffffffffffffffffffff1673ffffffffffffffffffffffffffffffffffffffff1681526020019081526020016000205411610a03576040517f08c379a000000000000000000000000000000000000000000000000000000000815260040180806020018281038252602e81526020018061318c602e913960400191505060405180910390fd5b601460026007015481610a1257fe5b049150600260050160003373ffffffffffffffffffffffffffffffffffffffff1673ffffffffffffffffffffffffffffffffffffffff16815260200190815260200160002054826002600701540381610a6757fe5b0492508260026008015481610a7857fe5b049050600160009054906101000a900473ffffffffffffffffffffffffffffffffffffffff1673ffffffffffffffffffffffffffffffffffffffff166323b872dd3033846040518463ffffffff1660e01b8152600401808473ffffffffffffffffffffffffffffffffffffffff1681526020018373ffffffffffffffffffffffffffffffffffffffff1681526020018281526020019350505050602060405180830381600087803b158015610b2c57600080fd5b505af1158015610b40573d6000803e3d6000fd5b505050506040513d6020811015610b5657600080fd5b810190808051906020019092919050505050610d6e565b6000600260060160003373ffffffffffffffffffffffffffffffffffffffff1673ffffffffffffffffffffffffffffffffffffffff1681526020019081526020016000205411610c08576040517f08c379a000000000000000000000000000000000000000000000000000000000815260040180806020018281038252602e81526020018061318c602e913960400191505060405180910390fd5b601460026008015481610c1757fe5b049150600260060160003373ffffffffffffffffffffffffffffffffffffffff1673ffffffffffffffffffffffffffffffffffffffff16815260200190815260200160002054826002600801540381610c6c57fe5b0492508260026007015481610c7d57fe5b049050600160009054906101000a900473ffffffffffffffffffffffffffffffffffffffff1673ffffffffffffffffffffffffffffffffffffffff166323b872dd3033846040518463ffffffff1660e01b8152600401808473ffffffffffffffffffffffffffffffffffffffff1681526020018373ffffffffffffffffffffffffffffffffffffffff1681526020018281526020019350505050602060405180830381600087803b158015610d3157600080fd5b505af1158015610d45573d6000803e3d6000fd5b505050506040513d6020811015610d5b57600080fd5b8101908080519060200190929190505050505b505050565b610d7b612747565b73ffffffffffffffffffffffffffffffffffffffff1660008054906101000a900473ffffffffffffffffffffffffffffffffffffffff1673ffffffffffffffffffffffffffffffffffffffff1614610e3b576040517f08c379a00000000000000000000000000000000000000000000000000000000081526004018080602001828103825260208152602001807f4f776e61626c653a2063616c6c6572206973206e6f7420746865206f776e657281525060200191505060405180910390fd5b600073ffffffffffffffffffffffffffffffffffffffff1660008054906101000a900473ffffffffffffffffffffffffffffffffffffffff1673ffffffffffffffffffffffffffffffffffffffff167f8be0079c531659141344cd1fd0a4f28419497f9722a3daafe3b4186f6b6457e060405160405180910390a360008060006101000a81548173ffffffffffffffffffffffffffffffffffffffff021916908373ffffffffffffffffffffffffffffffffffffffff160217905550565b60246020528060005260406000206000915090505481565b610f19612747565b73ffffffffffffffffffffffffffffffffffffffff1660008054906101000a900473ffffffffffffffffffffffffffffffffffffffff1673ffffffffffffffffffffffffffffffffffffffff1614610fd9576040517f08c379a00000000000000000000000000000000000000000000000000000000081526004018080602001828103825260208152602001807f4f776e61626c653a2063616c6c6572206973206e6f7420746865206f776e657281525060200191505060405180910390fd5b6022546006024201600260040154108015610ffa575060006002601f015414155b61106c576040517f08c379a00000000000000000000000000000000000000000000000000000000081526004018080602001828103825260178152602001807f416c726561647920612070656e64696e67206d6174636800000000000000000081525060200191505060405180910390fd5b602560003373ffffffffffffffffffffffffffffffffffffffff1673ffffffffffffffffffffffffffffffffffffffff16815260200190815260200160002060009054906101000a900460ff1661110e576040517f08c379a00000000000000000000000000000000000000000000000000000000081526004018080602001828103825260438152602001806131496043913960600191505060405180910390fd5b6022546006024201811161118a576040517f08c379a000000000000000000000000000000000000000000000000000000000815260040180806020018281038252601c8152602001807f54686973206d617463682073746172747320746f206561726c7920210000000081525060200191505060405180910390fd5b84600260000190805190602001906111a3929190612f02565b5083600260010190805190602001906111bd929190612f02565b50826002800190805190602001906111d6929190612f02565b5081600260030190805190602001906111f0929190612f02565b508060026004018190555060006002601f01819055506000600260070181905550600060026008018190555061122461274f565b5050505050565b60008060009054906101000a900473ffffffffffffffffffffffffffffffffffffffff16905090565b606060268054806020026020016040519081016040528092919081815260200182805480156112d857602002820191906000526020600020905b8160009054906101000a900473ffffffffffffffffffffffffffffffffffffffff1673ffffffffffffffffffffffffffffffffffffffff168152602001906001019080831161128e575b50505050509050602660006112ed9190612f82565b60005b81518110156113e0576025600083838151811061130957fe5b602002602001015173ffffffffffffffffffffffffffffffffffffffff1673ffffffffffffffffffffffffffffffffffffffff16815260200190815260200160002060009054906101000a900460ff16156113d557602682828151811061136c57fe5b60200260200101519080600181540180825580915050600190039060005260206000200160009091909190916101000a81548173ffffffffffffffffffffffffffffffffffffffff021916908373ffffffffffffffffffffffffffffffffffffffff1602179055505b6001810190506112f0565b5050565b6000811161145a576040517f08c379a00000000000000000000000000000000000000000000000000000000081526004018080602001828103825260128152602001807f616d6f756e742063616e6e6f742062652030000000000000000000000000000081525060200191505060405180910390fd5b600160009054906101000a900473ffffffffffffffffffffffffffffffffffffffff1673ffffffffffffffffffffffffffffffffffffffff166323b872dd3330846040518463ffffffff1660e01b8152600401808473ffffffffffffffffffffffffffffffffffffffff1681526020018373ffffffffffffffffffffffffffffffffffffffff1681526020018281526020019350505050602060405180830381600087803b15801561150b57600080fd5b505af115801561151f573d6000803e3d6000fd5b505050506040513d602081101561153557600080fd5b8101908080519060200190929190505050156116915780602460003373ffffffffffffffffffffffffffffffffffffffff1673ffffffffffffffffffffffffffffffffffffffff16815260200190815260200160002060008282540192505081905550602560003373ffffffffffffffffffffffffffffffffffffffff1673ffffffffffffffffffffffffffffffffffffffff16815260200190815260200160002060009054906101000a900460ff161580156116325750602354602460003373ffffffffffffffffffffffffffffffffffffffff1673ffffffffffffffffffffffffffffffffffffffff16815260200190815260200160002054115b15611690576001602560003373ffffffffffffffffffffffffffffffffffffffff1673ffffffffffffffffffffffffffffffffffffffff16815260200190815260200160002060006101000a81548160ff0219169083151502179055505b5b50565b60018214806116a35750600282145b611715576040517f08c379a000000000000000000000000000000000000000000000000000000000815260040180806020018281038252601c8152602001807f506c6561736520626574206f6e20612076616c6964207465616d20210000000081525060200191505060405180910390fd5b610e10420160026004015411611776576040517f08c379a00000000000000000000000000000000000000000000000000000000081526004018080602001828103825260238152602001806130fb6023913960400191505060405180910390fd5b600160009054906101000a900473ffffffffffffffffffffffffffffffffffffffff1673ffffffffffffffffffffffffffffffffffffffff166323b872dd3330846040518463ffffffff1660e01b8152600401808473ffffffffffffffffffffffffffffffffffffffff1681526020018373ffffffffffffffffffffffffffffffffffffffff1681526020018281526020019350505050602060405180830381600087803b15801561182757600080fd5b505af115801561183b573d6000803e3d6000fd5b505050506040513d602081101561185157600080fd5b81019080805190602001909291905050501561193d5760018214156118d8578060026007016000828254019250508190555080600260050160003373ffffffffffffffffffffffffffffffffffffffff1673ffffffffffffffffffffffffffffffffffffffff1681526020019081526020016000206000828254019250508190555061193c565b8060026008016000828254019250508190555080600260060160003373ffffffffffffffffffffffffffffffffffffffff1673ffffffffffffffffffffffffffffffffffffffff168152602001908152602001600020600082825401925050819055505b5b5050565b600081116119b7576040517f08c379a00000000000000000000000000000000000000000000000000000000081526004018080602001828103825260128152602001807f616d6f756e742063616e6e6f742062652030000000000000000000000000000081525060200191505060405180910390fd5b80602460003373ffffffffffffffffffffffffffffffffffffffff1673ffffffffffffffffffffffffffffffffffffffff168152602001908152602001600020541015611a4f576040517f08c379a000000000000000000000000000000000000000000000000000000000815260040180806020018281038252602b81526020018061311e602b913960400191505060405180910390fd5b600160009054906101000a900473ffffffffffffffffffffffffffffffffffffffff1673ffffffffffffffffffffffffffffffffffffffff166323b872dd3033846040518463ffffffff1660e01b8152600401808473ffffffffffffffffffffffffffffffffffffffff1681526020018373ffffffffffffffffffffffffffffffffffffffff1681526020018281526020019350505050602060405180830381600087803b158015611b0057600080fd5b505af1158015611b14573d6000803e3d6000fd5b505050506040513d6020811015611b2a57600080fd5b810190808051906020019092919050505015611c855780602460003373ffffffffffffffffffffffffffffffffffffffff1673ffffffffffffffffffffffffffffffffffffffff16815260200190815260200160002060008282540392505081905550602560003373ffffffffffffffffffffffffffffffffffffffff1673ffffffffffffffffffffffffffffffffffffffff16815260200190815260200160002060009054906101000a900460ff168015611c265750602354602460003373ffffffffffffffffffffffffffffffffffffffff1673ffffffffffffffffffffffffffffffffffffffff16815260200190815260200160002054105b15611c84576000602560003373ffffffffffffffffffffffffffffffffffffffff1673ffffffffffffffffffffffffffffffffffffffff16815260200190815260200160002060006101000a81548160ff0219169083151502179055505b5b50565b60276020528060005260406000206000915054906101000a900460ff1681565b611cb0612747565b73ffffffffffffffffffffffffffffffffffffffff1660008054906101000a900473ffffffffffffffffffffffffffffffffffffffff1673ffffffffffffffffffffffffffffffffffffffff1614611d70576040517f08c379a00000000000000000000000000000000000000000000000000000000081526004018080602001828103825260208152602001807f4f776e61626c653a2063616c6c6572206973206e6f7420746865206f776e657281525060200191505060405180910390fd5b600073ffffffffffffffffffffffffffffffffffffffff168173ffffffffffffffffffffffffffffffffffffffff161415611df6576040517f08c379a000000000000000000000000000000000000000000000000000000000815260040180806020018281038252602681526020018061301c6026913960400191505060405180910390fd5b8073ffffffffffffffffffffffffffffffffffffffff1660008054906101000a900473ffffffffffffffffffffffffffffffffffffffff1673ffffffffffffffffffffffffffffffffffffffff167f8be0079c531659141344cd1fd0a4f28419497f9722a3daafe3b4186f6b6457e060405160405180910390a3806000806101000a81548173ffffffffffffffffffffffffffffffffffffffff021916908373ffffffffffffffffffffffffffffffffffffffff16021790555050565b60006002601f015414611f11576040517f08c379a0000000000000000000000000000000000000000000000000000000008152600401808060200182810382526025815260200180612ff76025913960400191505060405180910390fd5b602254600602420160026004015410611f75576040517f08c379a00000000000000000000000000000000000000000000000000000000081526004018080602001828103825260448152602001806131ba6044913960600191505060405180910390fd5b60008060005b60148110156120db576000600260090160006002600b018460148110611f9d57fe5b0160009054906101000a900473ffffffffffffffffffffffffffffffffffffffff1673ffffffffffffffffffffffffffffffffffffffff1673ffffffffffffffffffffffffffffffffffffffff1681526020019081526020016000205414156120415761203c6002600b01826014811061201357fe5b0160009054906101000a900473ffffffffffffffffffffffffffffffffffffffff166032612996565b6120d0565b6001600260090160006002600b01846014811061205a57fe5b0160009054906101000a900473ffffffffffffffffffffffffffffffffffffffff1673ffffffffffffffffffffffffffffffffffffffff1673ffffffffffffffffffffffffffffffffffffffff1681526020019081526020016000205414156120c8576001830192506120cf565b6001820191505b5b600181019050611f7b565b508082106120f35760016002601f01819055506120fe565b600280601f01819055505b60005b601481101561221d576002601f0154600260090160006002600b01846014811061212757fe5b0160009054906101000a900473ffffffffffffffffffffffffffffffffffffffff1673ffffffffffffffffffffffffffffffffffffffff1673ffffffffffffffffffffffffffffffffffffffff16815260200190815260200160002054146121ca576121c56002600b01826014811061219c57fe5b0160009054906101000a900473ffffffffffffffffffffffffffffffffffffffff166064612996565b612212565b6122116002600b0182601481106121dd57fe5b0160009054906101000a900473ffffffffffffffffffffffffffffffffffffffff1660026008015460026007015401612a89565b5b600181019050612101565b505050565b6002806000018054600181600116156101000203166002900480601f0160208091040260200160405190810160405280929190818152602001828054600181600116156101000203166002900480156122bc5780601f10612291576101008083540402835291602001916122bc565b820191906000526020600020905b81548152906001019060200180831161229f57829003601f168201915b505050505090806001018054600181600116156101000203166002900480601f01602080910402602001604051908101604052809291908181526020018280546001816001161561010002031660029004801561235a5780601f1061232f5761010080835404028352916020019161235a565b820191906000526020600020905b81548152906001019060200180831161233d57829003601f168201915b505050505090806002018054600181600116156101000203166002900480601f0160208091040260200160405190810160405280929190818152602001828054600181600116156101000203166002900480156123f85780601f106123cd576101008083540402835291602001916123f8565b820191906000526020600020905b8154815290600101906020018083116123db57829003601f168201915b505050505090806003018054600181600116156101000203166002900480601f0160208091040260200160405190810160405280929190818152602001828054600181600116156101000203166002900480156124965780601f1061246b57610100808354040283529160200191612496565b820191906000526020600020905b81548152906001019060200180831161247957829003601f168201915b50505050509080600401549080600701549080600801549080601f0154905088565b6002600a0160003373ffffffffffffffffffffffffffffffffffffffff1673ffffffffffffffffffffffffffffffffffffffff16815260200190815260200160002060009054906101000a900460ff1661255d576040517f08c379a000000000000000000000000000000000000000000000000000000000815260040180806020018281038252602f81526020018061306f602f913960400191505060405180910390fd5b6022546006024201600260040154106125c1576040517f08c379a000000000000000000000000000000000000000000000000000000000815260040180806020018281038252605d81526020018061309e605d913960600191505060405180910390fd5b60018114806125d05750600281145b612625576040517f08c379a000000000000000000000000000000000000000000000000000000000815260040180806020018281038252602d815260200180613042602d913960400191505060405180910390fd5b6000600260090160003373ffffffffffffffffffffffffffffffffffffffff1673ffffffffffffffffffffffffffffffffffffffff16815260200190815260200160002054146126dd576040517f08c379a00000000000000000000000000000000000000000000000000000000081526004018080602001828103825260138152602001807f596f7520616c726561647920766f74656420210000000000000000000000000081525060200191505060405180910390fd5b80600260090160003373ffffffffffffffffffffffffffffffffffffffff1673ffffffffffffffffffffffffffffffffffffffff1681526020019081526020016000208190555050565b60256020528060005260406000206000915054906101000a900460ff1681565b600033905090565b60005b601481101561286b576000600260090160006002600b01846014811061277457fe5b0160009054906101000a900473ffffffffffffffffffffffffffffffffffffffff1673ffffffffffffffffffffffffffffffffffffffff1673ffffffffffffffffffffffffffffffffffffffff1681526020019081526020016000208190555060006002600a0160006002600b0184601481106127ed57fe5b0160009054906101000a900473ffffffffffffffffffffffffffffffffffffffff1673ffffffffffffffffffffffffffffffffffffffff1673ffffffffffffffffffffffffffffffffffffffff16815260200190815260200160002060006101000a81548160ff021916908315150217905550600181019050612752565b506002600b01600061287d9190612fa3565b612885612fb6565b61288d612af4565b905060005b6014811015612992578181601481106128a757fe5b60200201516002600b0182601481106128bc57fe5b0160006101000a81548173ffffffffffffffffffffffffffffffffffffffff021916908373ffffffffffffffffffffffffffffffffffffffff16021790555060016002600a0160006002600b01846014811061291457fe5b0160009054906101000a900473ffffffffffffffffffffffffffffffffffffffff1673ffffffffffffffffffffffffffffffffffffffff1673ffffffffffffffffffffffffffffffffffffffff16815260200190815260200160002060006101000a81548160ff021916908315150217905550600181019050612892565b5050565b80602460008473ffffffffffffffffffffffffffffffffffffffff1673ffffffffffffffffffffffffffffffffffffffff16815260200190815260200160002060008282540392505081905550602354602460008473ffffffffffffffffffffffffffffffffffffffff1673ffffffffffffffffffffffffffffffffffffffff168152602001908152602001600020541015612a85576000602560008473ffffffffffffffffffffffffffffffffffffffff1673ffffffffffffffffffffffffffffffffffffffff16815260200190815260200160002060006101000a81548160ff0219169083151502179055505b5050565b6000612a96826014612d58565b9050612aa3816014612d58565b602460008573ffffffffffffffffffffffffffffffffffffffff1673ffffffffffffffffffffffffffffffffffffffff16815260200190815260200160002060008282540192505081905550505050565b612afc612fb6565b6000612b06612da2565b9050600080600090505b6014811015612cdc57612b2283612dee565b91505b6027600060268481548110612b3657fe5b9060005260206000200160009054906101000a900473ffffffffffffffffffffffffffffffffffffffff1673ffffffffffffffffffffffffffffffffffffffff1673ffffffffffffffffffffffffffffffffffffffff16815260200190815260200160002060009054906101000a900460ff1615612bbe57612bb783612dee565b9150612b25565b60016027600060268581548110612bd157fe5b9060005260206000200160009054906101000a900473ffffffffffffffffffffffffffffffffffffffff1673ffffffffffffffffffffffffffffffffffffffff1673ffffffffffffffffffffffffffffffffffffffff16815260200190815260200160002060006101000a81548160ff02191690831515021790555060268281548110612c5a57fe5b9060005260206000200160009054906101000a900473ffffffffffffffffffffffffffffffffffffffff1660288260148110612c9257fe5b0160006101000a81548173ffffffffffffffffffffffffffffffffffffffff021916908373ffffffffffffffffffffffffffffffffffffffff160217905550600181019050612b10565b506028601480602002604051908101604052809291908260148015612d4c576020028201915b8160009054906101000a900473ffffffffffffffffffffffffffffffffffffffff1673ffffffffffffffffffffffffffffffffffffffff1681526020019060010190808311612d02575b50505050509250505090565b6000612d9a83836040518060400160405280601a81526020017f536166654d6174683a206469766973696f6e206279207a65726f000000000000815250612e3c565b905092915050565b600080424460405160200180838152602001828152602001925050506040516020818303038152906040528051906020012060001c90506026805490508181612de757fe5b0691505090565b600080824460405160200180838152602001828152602001925050506040516020818303038152906040528051906020012060001c90506026805490508181612e3357fe5b06915050919050565b60008083118290612ee8576040517f08c379a00000000000000000000000000000000000000000000000000000000081526004018080602001828103825283818151815260200191508051906020019080838360005b83811015612ead578082015181840152602081019050612e92565b50505050905090810190601f168015612eda5780820380516001836020036101000a031916815260200191505b509250505060405180910390fd5b506000838581612ef457fe5b049050809150509392505050565b828054600181600116156101000203166002900490600052602060002090601f016020900481019282601f10612f4357805160ff1916838001178555612f71565b82800160010185558215612f71579182015b82811115612f70578251825591602001919060010190612f55565b5b509050612f7e9190612fd9565b5090565b5080546000825590600052602060002090810190612fa09190612fd9565b50565b508060140190612fb39190612fd9565b50565b604051806102800160405280601490602082028036833780820191505090505090565b5b80821115612ff2576000816000905550600101612fda565b509056fe57696e6e6572206f662074686973206d6174636820616c7265616479207069636b656420214f776e61626c653a206e6577206f776e657220697320746865207a65726f2061646472657373506c65617365207069636b20612076616c6964207465616d203a207465616d2031206f72207465616d20322021596f7520617265206e6f7420612076616c696461746f7220666f72207468652070656e64696e67206d617463682021596f752077696c6c2062652061626c6520746f207069636b20612077696e6e657220362074696d655f616d6f756e74202873656520636f6e7374206465636c61726174696f6e29206166746572206d61746368207374617274656420216974277320746f206c61746520746f20626574206f6e2074686973206d617463682021416d6f756e742063616e2774206265207375706572696f72206f66207374616b696e672062616c616e6365596f75206e65656420746f20737461636b2031303030204245544820746f20626520612076616c696461746f7220616e642070726f706f7365206d6174636865732021596f75206265742030206f6e207468652077696e6e65722c206e6f2072657761726420617661696c61626c6520216e65656420746f207761697420362054494d455f414d4f554e5420736f2076616c696461746f727320686176652074696d6520746f207069636b2077696e6e6572732021a2646970667358221220e9e1261b4aa8b96ab788b3bd0e3d2545a4ba69db8818def9d3ae49c7b708f42f64736f6c634300060c0033",
  "immutableReferences": {},
  "source": "// SPDX-License-Identifier: MIT\r\npragma solidity ^0.6.0;\r\n\r\nimport \"@openzeppelin/contracts/access/Ownable.sol\";\r\nimport \"./BethToken.sol\";\r\n\r\ncontract Beth is Ownable {\r\n\r\n    BethToken public bethToken;\r\n\r\n    struct Match {\r\n        string title;\r\n        string gameName;\r\n        string team1;\r\n        string team2;\r\n        uint matchDate;\r\n\r\n        mapping (address => uint) team1UserBetAmount;\r\n        mapping (address => uint) team2UserBetAmount;\r\n        uint team1TotalBetAmount;\r\n        uint team2TotalBetAmount;\r\n\r\n        mapping (address => uint) pickedWinner;\r\n        mapping (address => bool) isValidator;\r\n        address[20] validators;\r\n        uint winner;\r\n    }\r\n\r\n    Match public actualMatch;\r\n\r\n    uint TIME_AMOUNT = 1 minutes;\r\n\r\n    constructor(BethToken _bethToken) public {\r\n        bethToken = _bethToken;\r\n\r\n        //create default empty match\r\n        actualMatch.title = \"Hugo vs Gorille\";\r\n        actualMatch.gameName = \"Combat  main nus\";\r\n        actualMatch.team1 = \"Hugo\";\r\n        actualMatch.team2 = \"Gorille\";\r\n        actualMatch.matchDate = 1612128600;\r\n        actualMatch.winner = 1;\r\n        actualMatch.team1TotalBetAmount = 0;\r\n        actualMatch.team2TotalBetAmount = 0;\r\n    }\r\n\r\n    uint256 validatorMinimalStack = 1000000000000000000000; //1000 tokens\r\n\r\n    //all validators\r\n    mapping (address => uint256) public stackingBalance;\r\n    mapping (address => bool) public isValidator;\r\n    address[] public validators;\r\n\r\n    //validators on actual match\r\n    mapping (address => bool) public isValidatingActualMatch;\r\n    address[20] pickedValidators;\r\n\r\n    ////////////////////////////////\r\n    //    validators functions   //\r\n    //////////////////////////////\r\n\r\n    function stackTokens (uint _amount) public {\r\n        require(_amount > 0, \"amount cannot be 0\");\r\n\r\n        if (bethToken.transferFrom(msg.sender, address(this), _amount)) {\r\n            stackingBalance[msg.sender] += _amount;\r\n\r\n            //become validator is enough stack\r\n            if (!isValidator[msg.sender] && stackingBalance[msg.sender] > validatorMinimalStack) {\r\n                isValidator[msg.sender] = true;\r\n            }\r\n        }\r\n    }\r\n\r\n    function unstackTokens(uint _amount) public {\r\n        require(_amount > 0, \"amount cannot be 0\");\r\n        require(stackingBalance[msg.sender] >= _amount, \"Amount can't be superior of staking balance\");\r\n\r\n        if (bethToken.transferFrom(address(this), msg.sender, _amount)) {\r\n            stackingBalance[msg.sender] -= _amount;\r\n            if (isValidator[msg.sender] && stackingBalance[msg.sender] < validatorMinimalStack) {\r\n                isValidator[msg.sender] = false;\r\n            }\r\n        }\r\n    }\r\n\r\n    function reindex() public {\r\n        address[] memory oldValidators = validators;\r\n        delete validators;\r\n        for (uint i = 0; i < oldValidators.length; i+=1) {\r\n            if (isValidator[oldValidators[i]]) {\r\n                validators.push(oldValidators[i]);\r\n            }\r\n        }\r\n    }\r\n\r\n    function pickValidators() private returns (address[20] memory) {\r\n        uint random = randomFromBlock();\r\n        uint randomValidator;\r\n        for (uint i = 0; i < 20; i +=1) {\r\n            randomValidator = randomFromNumber(random);\r\n            while(isValidatingActualMatch[validators[randomValidator]]) {\r\n                randomValidator = randomFromNumber(random);\r\n            }\r\n            isValidatingActualMatch[validators[randomValidator]] = true;\r\n            pickedValidators[i] = validators[randomValidator];\r\n        }\r\n        return pickedValidators;\r\n    }\r\n\r\n    function randomFromBlock() private view returns (uint) {\r\n        uint randomHash = uint(keccak256(abi.encodePacked(block.timestamp, block.difficulty)));\r\n        return randomHash % validators.length;\r\n    }\r\n\r\n    function randomFromNumber(uint number) private view returns (uint) {\r\n        uint randomHash = uint(keccak256(abi.encodePacked(number, block.difficulty)));\r\n        return randomHash % validators.length;\r\n    }\r\n\r\n    function punish(address _validator, uint _amount) private {\r\n        stackingBalance[_validator] -= _amount; //punished for not voting\r\n        if (stackingBalance[_validator] < validatorMinimalStack) {\r\n            isValidator[_validator] = false;\r\n        }\r\n    }\r\n\r\n    function rewardValidator(address _address, uint _totalBet) private {\r\n        uint amountForValidators = SafeMath.div(_totalBet, 20); //5% for validators\r\n        stackingBalance[_address] += SafeMath.div(amountForValidators, 20);\r\n    }\r\n\r\n    ////////////////////////////////\r\n    //       Match functions     //\r\n    //////////////////////////////\r\n\r\n    function createMatch(string memory _title, string memory _gameName, string memory _team1, string memory _team2, uint _matchDate) public onlyOwner {\r\n        require(actualMatch.matchDate < block.timestamp + (6*TIME_AMOUNT) && actualMatch.winner != 0, \"Already a pending match\"); //can't init a new match if previous was less than 6 TIME_AMOUNT ago\r\n        require(isValidator[msg.sender], \"You need to stack 1000 BETH to be a validator and propose matches !\");\r\n\r\n        //valid match parameters\r\n        require(_matchDate > block.timestamp + (6*TIME_AMOUNT), \"This match starts to early !\");\r\n\r\n        actualMatch.title = _title;\r\n        actualMatch.gameName = _gameName;\r\n        actualMatch.team1 = _team1;\r\n        actualMatch.team2 = _team2;\r\n        actualMatch.matchDate = _matchDate;\r\n        actualMatch.winner = 0;\r\n        actualMatch.team1TotalBetAmount = 0;\r\n        actualMatch.team2TotalBetAmount = 0;\r\n        resetValidators();\r\n    }\r\n\r\n    function resetValidators() private {\r\n        for (uint i = 0; i < 20; i += 1) {\r\n            actualMatch.pickedWinner[actualMatch.validators[i]] = 0;\r\n            actualMatch.isValidator[actualMatch.validators[i]] = false;\r\n        }\r\n        delete actualMatch.validators;\r\n        address[20] memory newValidators = pickValidators();\r\n        for (uint i = 0; i < 20; i += 1) {\r\n            actualMatch.validators[i] = newValidators[i];\r\n            actualMatch.isValidator[actualMatch.validators[i]] = true;\r\n        }\r\n    }\r\n\r\n    function pickWinner(uint _team) public {\r\n        require(actualMatch.isValidator[msg.sender], \"You are not a validator for the pending match !\");\r\n        require(actualMatch.matchDate < block.timestamp + (6*TIME_AMOUNT), \"You will be able to pick a winner 6 time_amount (see const declaration) after match started !\");\r\n        require(_team == 1 || _team == 2, \"Please pick a valid team : team 1 or team 2 !\");\r\n        require(actualMatch.pickedWinner[msg.sender] == 0, \"You already voted !\");\r\n\r\n        actualMatch.pickedWinner[msg.sender] = _team;\r\n    }\r\n\r\n    function finishMatch() public {\r\n        require(actualMatch.winner == 0, \"Winner of this match already picked !\");\r\n        require(actualMatch.matchDate < block.timestamp + (6*TIME_AMOUNT), \"need to wait 6 TIME_AMOUNT so validators have time to pick winners !\");\r\n\r\n        uint team1 = 0;\r\n        uint team2 = 0;\r\n        for (uint i = 0; i < 20; i += 1) {\r\n            if (actualMatch.pickedWinner[actualMatch.validators[i]] == 0) {\r\n                punish(actualMatch.validators[i], 50); //punish for not voting 50 tokens\r\n            }\r\n            else {\r\n                if (actualMatch.pickedWinner[actualMatch.validators[i]] == 1) team1 += 1;\r\n                else team2 += 1;\r\n            }\r\n        }\r\n\r\n        if (team1 >= team2) actualMatch.winner = 1; // no tie for the moment implemented in later updates\r\n        else actualMatch.winner = 2;\r\n\r\n        for (uint i = 0; i < 20; i += 1) {\r\n            if (actualMatch.pickedWinner[actualMatch.validators[i]] != actualMatch.winner) {\r\n                punish(actualMatch.validators[i], 100); //punish for not voting false 100 tokens\r\n            }\r\n            else {\r\n                rewardValidator(actualMatch.validators[i], actualMatch.team1TotalBetAmount + actualMatch.team2TotalBetAmount); //reward good voters with percentage of total bet\r\n            }\r\n        }\r\n    }\r\n\r\n    function betOnTeam(uint _team, uint _amount) public {\r\n        require(_team == 1 || _team == 2, \"Please bet on a valid team !\");\r\n        require(actualMatch.matchDate > block.timestamp + 1 hours, \"it's to late to bet on this match !\");\r\n        if (bethToken.transferFrom(msg.sender, address(this), _amount)) {\r\n            if (_team == 1) {\r\n                actualMatch.team1TotalBetAmount += _amount;\r\n                actualMatch.team1UserBetAmount[msg.sender] += _amount;\r\n            }\r\n            else {\r\n                actualMatch.team2TotalBetAmount += _amount;\r\n                actualMatch.team2UserBetAmount[msg.sender] += _amount;\r\n            }\r\n        }\r\n    }\r\n\r\n    function getReward() public {\r\n        require(actualMatch.winner != 0, \"Winner not picked yet !\");\r\n        uint ratio;\r\n        uint amountForValidators;\r\n        uint deservedAmount;\r\n        if (actualMatch.winner == 1) {\r\n            require(actualMatch.team1UserBetAmount[msg.sender] > 0, \"You bet 0 on the winner, no reward available !\");\r\n            amountForValidators = actualMatch.team1TotalBetAmount / 20; //5% for validators\r\n            ratio = (actualMatch.team1TotalBetAmount - amountForValidators) / actualMatch.team1UserBetAmount[msg.sender];\r\n            deservedAmount = actualMatch.team2TotalBetAmount / ratio;\r\n            bethToken.transferFrom(address(this), msg.sender, deservedAmount);\r\n        }\r\n        else {\r\n            require(actualMatch.team2UserBetAmount[msg.sender] > 0, \"You bet 0 on the winner, no reward available !\");\r\n            amountForValidators = actualMatch.team2TotalBetAmount / 20; //5% for validators\r\n            ratio = (actualMatch.team2TotalBetAmount - amountForValidators) / actualMatch.team2UserBetAmount[msg.sender];\r\n            deservedAmount = actualMatch.team1TotalBetAmount / ratio;\r\n            bethToken.transferFrom(address(this), msg.sender, deservedAmount);\r\n        }\r\n    }\r\n\r\n}\r\n",
  "sourcePath": "F:/Utilisateurs/louis/Documents/beth/src/contracts/Beth.sol",
  "compiler": {
    "name": "solc",
    "version": "0.6.12+commit.27d51765.Emscripten.clang"
  },
  "schemaVersion": "3.2.3",
  "updatedAt": "2021-01-31T19:44:21.530Z",
  "networkType": "ethereum",
  "devdoc": {
    "kind": "dev",
    "methods": {
      "owner()": {
        "details": "Returns the address of the current owner."
      },
      "renounceOwnership()": {
        "details": "Leaves the contract without owner. It will not be possible to call `onlyOwner` functions anymore. Can only be called by the current owner. NOTE: Renouncing ownership will leave the contract without an owner, thereby removing any functionality that is only available to the owner."
      },
      "transferOwnership(address)": {
        "details": "Transfers ownership of the contract to a new account (`newOwner`). Can only be called by the current owner."
      }
    },
    "version": 1
  },
  "userdoc": {
    "kind": "user",
    "methods": {},
    "version": 1
  }
}